:020000040800F2
:1000000000000320DD410008394100083B410008A1
:100010003D4100083F410008414100080000000048
:100020000000000000000000000000004341000844
:100030004541000800000000474100084941000810
:100040002D4200082D4200082D4200082D420008D4
:100050002D4200082D4200084D4100082D420008A5
:100060002D4200082D4200082D420008554100088D
:10007000614100086D4100082D4200082D42000832
:10008000794100082D4200082D4200082D42000849
:100090002D4200082D4200082D4200082D42000884
:1000A0002D4200082D4200082D4200082D42000874
:1000B0002D4200082D4200082D4200082D42000864
:1000C0002D4200082D4200082D4200082D42000854
:1000D0002D4200082D4200082D4200082D42000844
:1000E0002D4200082D4200082D4200082D42000834
:1000F0002D4200082D4200082D4200082D42000824
:100100002D4200082D4200082D4200082D42000813
:100110002D4200082D4200082D4200082D42000803
:100120002D420008854100082D4200082D4200089C
:100130002D4200082D4200082D4200082D420008E3
:100140002D4200082D4200082D4200082D420008D3
:100150002D4200082D4200082D4200082D420008C3
:100160002D4200082D4200082D4200082D420008B3
:100170002D4200082D4200082D420008000000001A
:100180002D4200082D4200082D4200082D42000893
:100190002D4200082D4200082D4200082D42000883
:0C01A0002D4200082D4200082D420008EE
:1001AC0010B5054C237833B9044B13B10448AFF3A5
:1001BC0000800123237010BD0C0000200000000003
:1001CC008842000808B5034B1BB103490348AFF341
:1001DC00008008BD000000001000002088420008CC
:1001EC0053B94AB9002908BF00281CBF4FF0FF3192
:1001FC004FF0FF3000F07AB9ADF1080C6DE904CE88
:10020C0000F006F8DDF804E0DDE9022304B07047E5
:10021C002DE9F0478C460D460446089E002B51D123
:10022C008A4217466DD9B2FA82FEBEF1000F0BD08E
:10023C00CEF1200C01FA0EF520FA0CFC02FA0EF7A6
:10024C004CEA050C00FA0EF44FEA174A250CBCFBDD
:10025C00FAF81FFA87F90AFB18CC45EA0C4508FB9B
:10026C0009F3AB420AD9ED1908F1FF3280F0238172
:10027C00AB4240F22081A8F102083D44ED1AA4B231
:10028C00B5FBFAF00AFB105544EA054400FB09F9EA
:10029C00A14509D9E41900F1FF3380F00A81A14589
:1002AC0040F2078102383C44A4EB090440EA0840C0
:1002BC000021002E61D024FA0EF400233460736008
:1002CC00BDE8F0878B4207D9002E54D0002186E878
:1002DC0021000846BDE8F087B3FA83F1002940F00D
:1002EC008E80AB4202D3824200F2FA80841A65EB14
:1002FC0003050120AC46002E3FD086E81010BDE867
:10030C00F08712B90127B7FBF2F7B7FA87FEBEF1F7
:10031C00000F34D1EB1B3A0C1FFA87FC0121B3FB05
:10032C00F2F8250C02FB183345EA03450CFB08F3E5
:10033C00AB4207D9ED1908F1FF3002D2AB4200F203
:10034C00D1808046ED1AA3B2B5FBF2F002FB10553A
:10035C0043EA05440CFB00FCA44507D9E41900F161
:10036C00FF3302D2A44500F2B8801846A4EB0C046B
:10037C0040EA08409DE731463046BDE8F087CEF1B3
:10038C00200405FA0EF307FA0EF720FA04F83A0CDB
:10039C0025FA04F448EA0308B4FBF2F14FEA1845D5
:1003AC0002FB11441FFA87FC45EA044501FB0CF3E0
:1003BC00AB4200FA0EF409D9ED1901F1FF3080F0CF
:1003CC008A80AB4240F2878002393D44EB1A1FFA17
:1003DC0088F5B3FBF2F002FB103345EA034500FB52
:1003EC000CF3AB4207D9ED1900F1FF386FD2AB42D9
:1003FC006DD902383D44EB1A40EA01418FE7C1F157
:10040C00200722FA07F88B4005FA01F448EA0303A7
:10041C0020FA07FE4FEA134CFD404EEA040EB5FBE2
:10042C00FCF94FEA1E440CFB19551FFA83F844EAF9
:10043C00054509FB08F4AC4202FA01F200FA01FA94
:10044C0008D9ED1809F1FF3043D2AC4241D9A9F1DA
:10045C0002091D442D1B1FFA8EFEB5FBFCF00CFB94
:10046C0010554EEA054400FB08F8A04507D9E418DE
:10047C0000F1FF3529D2A04527D902381C4440EAA7
:10048C000940A4EB0804A0FB02894C45C6464D4626
:10049C0015D312D056B1BAEB0E0364EB050404FA73
:1004AC0007F7CB401F43CC40376074600021BDE898
:1004BC00F0871846F8E69046E0E6C245EAD2B8EB7B
:1004CC00020E69EB03050138E4E72846D7E74046FE
:1004DC0091E78146BEE7014678E702383C4445E7A0
:1004EC00084608E7A8F102083D442BE7704700BF17
:1004FC0038B50E4A0E4B054618784FF47A73B3FB99
:10050C00F0F31068B0FBF3F000F0AAF8044658B909
:10051C000F2D09D8024629464FF0FF3000F05EF847
:10052C00044B20461D6038BD012038BD080000205A
:10053C00000000200400002008B50B4B1A6842F4A0
:10054C0000721A601A6842F480621A601A6842F4E7
:10055C0080721A60032000F02FF80020FFF7C8FF0C
:10056C0003F0D6FA002008BD003C0240034A044BBD
:10057C0011681B780B441360704700BF6C0000209F
:10058C0000000020014B1868704700BF6C00002071
:10059C0038B50446FFF7F6FF631C1CBF054B1B78F0
:1005AC00054618BFE418FFF7EDFF401B8442FAD84C
:1005BC0038BD00BF00000020074AD36823F4E06375
:1005CC001B041B0C43F0BF63000243F4003300F424
:1005DC00E0600343D360704700ED00E0174B30B58B
:1005EC00DC68C4F30224C4F10703251D042B28BFC7
:1005FC000423062D4FF0010505FA03F303F1FF3335
:10060C008CBF033C00241940A14005FA04F4013CC2
:10061C002240002842EA01024FEA0212ADBF00F16B
:10062C00604000F00F00064B00F56140B5BFD2B240
:10063C00D2B21A5480F8002330BD00BF00ED00E0A8
:10064C0014ED00E0002808DB4209012300F01F0034
:10065C0003FA00F0014B43F82200704700E100E080
:10066C000138B0F1807F0AD2064B074A5860F0215E
:10067C0082F823100020072298601A60704701202E
:10068C00704700BF10E000E000ED00E010B504463C
:10069C0068B1037903F0FF0213B9427103F054FA05
:1006AC0002232371002001232061237110BD01203E
:1006BC0010BD4379012B10B54FF0020318D0037114
:1006CC00036801221C6842718A4022431A6089B96E
:1006DC0019681A684C0707D502F03802382A03D17A
:1006EC005A6842F001025A600123037100234371DE
:1006FC00184610BD19681A684903F5D502F4601242
:10070C00B2F5601FF0D15A6842F00202EBE710B567
:10071C0004680122236802FA01F123EA0103236031
:10072C000271002010BD4379012B30B54FF002034C
:10073C0017D004680371236840F6FE75954023EAD0
:10074C0005050AC90B4393402B4323602368C02142
:10075C0001FA02F223EA0202012322600371002350
:10076C004371184630BD13B5002400680194019004
:10077C0041B9019908310A440192019A0020136091
:10078C0002B010BD01991431F5E700000368DAB22C
:10079C0023F47F7323F003031821103AB2FBF1F218
:1007AC000449032A88BF0433895C8365C165806D65
:1007BC00704700BFA042000870B50446FFF7E2FE88
:1007CC000546002C71D0002384F8343022680223B3
:1007DC0084F83530136823F00103136021680B682B
:1007EC00D8073CD40B68324D6268A0691D40A368E1
:1007FC001343E26813432269134362691343E269AA
:10080C0003431343226A1343626A042A43EA05032F
:10081C0001BF266BE56A35432B430B604B69042AF9
:10082C0023F0070343EA02030BD1A26AE56A1343E0
:10083C003DB1F8B9012A2DD001D3022A01D1EA0128
:10084C002BD44B612046FFF7A1FFE26D3F23934071
:10085C00836000200123606584F8353070BDFFF79C
:10086C0091FE401B0528B9D920236365032084F829
:10087C00350070BDB0F5005F13D1032AE1D801A09B
:10088C0050F822F0A70800084B080008A708000839
:10089C00A1080008B5F1C07FD3D1402363650120C6
:1008AC00E5E7022AF9D9032AC8E7012070BD00BF89
:1008BC003F8010F070B590F83440012C36D00124F4
:1008CC0080F8344090F83540866D012C4FF00005CF
:1008DC004FF0020428D180F835400468456525683E
:1008EC0025F48025256063608368402B0EBFA260D1
:1008FC00A160E260C26D08BFE1603F239340B3602A
:10090C00236843F016032360636943F0800363613B
:10091C00036C1BB1236843F008032360236843F086
:10092C0001032360002070BD80F83450022070BD9C
:10093C0070B50446856DFFF725FE94F83530022B13
:10094C00064606D080236365002384F834300120EA
:10095C0070BD23681A6822F016021A605A6922F0D8
:10096C0080025A61226C0AB9A26C1AB11A6822F080
:10097C0008021A601A6822F001021A6023681868CB
:10098C0010F0010009D1E26D3F239340AB600123CD
:10099C0084F8340084F8353070BDFFF7F3FD801B0C
:1009AC000528EBD9202363650320002384F8343019
:1009BC0084F8350070BD0000F7B5002301935A4B45
:1009CC00856D1F68C36D2E6808229A401642044636
:1009DC000CD001680868400708D5086820F00400AE
:1009EC000860AA60626D42F00102626501229A40C1
:1009FC00164208D021684969090641BFAA60626D98
:100A0C0042F00202626504229A40164208D0216824
:100A1C000968880741BFAA60626D42F004026265F2
:100A2C0010229A40164210D02368196809070CD579
:100A3C00AA601A68500335D51B68190301D4236CBE
:100A4C0000E0A36C0BB120469847E16D20228A4050
:100A5C00164238D023681868C60634D5AA6094F8B4
:100A6C003520052A1A6825D122F016021A605A6917
:100A7C0022F080025A61226C0AB9A26C1AB11A686F
:100A8C0022F008021A603F238B40AB60002384F8ED
:100A9C003430012384F83530236D0BB12046984750
:100AAC0003B0F0BD1A68D2055EBF1A6822F00802C6
:100ABC001A60C4E7500328D51B68190332D4636C41
:100ACC000BB120469847636D002BE9D0636DDA07B4
:100ADC0019D50523226884F83530136823F00103F7
:100AEC0013604FF41653B7FBF3F7019B01339F428E
:100AFC00019302D31368DB07F7D4002384F8343056
:100B0C00012384F83530E36CC7E71A6812F480725D
:100B1C0008D1196821F010011960012384F83420E0
:100B2C0084F83530E36BCBE70800002070B5044641
:100B3C0029B14FF40063C3604FF480438360E369D1
:100B4C002268E0681568002BA36843EA000330486C
:100B5C0043F4007300EA05000CBF4FF480610021E0
:100B6C0003430B43136001201568FFF711FD236845
:100B7C0040221D6001205A605D68FFF709FD236863
:100B8C005D6000259D60DD609A6922F0BE02120452
:100B9C00120C42F080029A6101209E69FFF7F8FC6A
:100BAC00236801209E61DD61DD69FFF7F1FC22689D
:100BBC00184BD56141F21805012051590B4043F0F7
:100BCC00087343F0040353515659FFF7E1FC2368B3
:100BDC00114A5E5103F5805301201A601D68FFF71E
:100BEC00D7FC226802F580531D60A369012B07D145
:100BFC0041F21C01535843F4803343F040035350EB
:100C0C006369064A998811601A68054B1A6070BDB1
:100C1C000F8120FF233FDEF88020C102408002407C
:100C2C0044800240F8B590F84430822B05461646B5
:100C3C0030D00268822380F844301369890101F4B2
:100C4C00F86403F01C012143048AE402A4B20C43AF
:100C5C0044F001041461FFF795FC074614F0010001
:100C6C0007D12B685B699BB23360012385F8443054
:100C7C00F8BDFFF787FCC01BB0F5803F07D30123FD
:100C8C0085F84430002385F845300320F8BD2B68E7
:100C9C001C69E3E70220F8BD90F84430422B70B594
:100CAC0005462ED0422380F8443003688C01186925
:100CBC0004F4F86444F0030400F01C0020432C8A74
:100CCC00E402A4B2044392B25A611C61FFF75AFCCD
:100CDC00064614F0010003D1012385F8443070BDA1
:100CEC00FFF750FC801BB0F5803F07D3012385F83C
:100CFC004430002385F84530032070BD2B681C69F7
:100D0C00E7E7022070BD0000F7B50023009304460E
:100D1C00002800F0DE8090F8443003F0FF021BB98D
:100D2C0080F8452002F042FF002301936A4B5A6C75
:100D3C0042F480425A645B6C03F480430193019B40
:100D4C00664B5A6822F400025A605A68216A0A43B8
:100D5C005A60236803F580531A6842F001021A6046
:100D6C00FFF710FC0546236803F580521268D00784
:100D7C001DD41D6900F09AFC594B5A4A0344934206
:100D8C0025F01C0522D845F0080523684FF40042D5
:100D9C001D6100212046FFF77FFF054668B3012146
:100DAC0020460125FFF7C2FE84F844500BE0FFF704
:100DBC00E9FB401BB0F5FA7FD5D90325002384F855
:100DCC00445084F84530284603B0F0BD464B474AA2
:100DDC000344934202D845F00C05D6E7444B454AF0
:100DEC0003449342D1D9444B444A0344934294BFA5
:100DFC0045F0040545F01005C7E7FF20FFF7C8FBD9
:100E0C006368002B53D0FFF7BDFB41F288370646D1
:100E1C006A4601212046FFF705FFFFF7B3FB801B55
:100E2C00B8420BD901212046FFF780FE012384F83C
:100E3C004430002384F845300325C4E7009B590750
:100E4C00E6D54FF4805200212046FFF725FF0028FD
:100E5C00A5D1FFF797FB41F2883706466A46012178
:100E6C002046FFF7DFFEFFF78DFB801BB842D9D879
:100E7C00009B9A06F2D56A461F212046FFF7D2FE48
:100E8C0000288CD1009B13F0100218BF4FF40062A5
:100E9C005B074CBF00234FF48043E260A36000214A
:100EAC002046FFF743FE012384F844308BE7A36808
:100EBC00E2685B0843EAD20292B229462046FFF769
:100ECC00EBFE00287FF46BAF40F6FF70FFF760FB82
:100EDC00E5E7012577E700BF003802400038014004
:100EEC0000D3CEFEBFE1E40040F1E9FD3F787D0187
:100EFC0000796CFCFF596202001F0AFA7FF0FA02BB
:100F0C002DE9F04F85B00B68DFF8C4816E4ADFF82D
:100F1C00C491019300234FF0010E019C0EFA03FEC5
:100F2C000EEA0406B64540F0B6804C6824F0100773
:100F3C00022F16D14FEAD30A00EB8A0A03F0070BF3
:100F4C00DAF820504FEA8B0B4FF00F0C0CFA0BFC1D
:100F5C0025EA0C0C0D6905FA0BF545EA0C05CAF8E7
:100F6C0020504FEA430A0325D0F800B005FA0AF5E1
:100F7C00ED4304F0030C0BEA050B0CFA0AFC013FE1
:100F8C004CEA0B0C012FC0F800C011D8876807EA97
:100F9C00050BCF6807FA0AFC4CEA0B078760476819
:100FAC0027EA0E0EC4F300179F4047EA0E0747606E
:100FBC00C7683D408F6807FA0AF73D43C560E500F6
:100FCC0069D54FF0000BCDF80CB0D8F844703F4DFC
:100FDC0047F48047C8F84470D8F8447007F4804749
:100FEC000397039F23F0030707F1804707F59C370E
:100FFC0003F0030CD7F808A04FEA8C0C4FF00F0E3F
:10100C000EFA0CFEA8422AEA0E0E4BD005F58065AE
:10101C00A84249D005F58065A84247D005F5806502
:10102C00A84245D005F58065A84243D0484543D039
:10103C0005F50065A84241D005F58065A8423FD072
:10104C0005F58065A8423DD005F58065A84214BF22
:10105C000A25092505FA0CF545EA0E05BD6015684B
:10106C00F74314F4803F0CBF3D4035431560556881
:10107C0014F4003F0CBF3D4035435560956814F4A3
:10108C00801F0CBF3D4035439560D568A40254BF0A
:10109C003D403543D5600133102B7FF43CAF05B098
:1010AC00BDE8F08F5D46D5E70125D3E70225D1E7F2
:1010BC000325CFE70425CDE70525CBE70625C9E7B2
:1010CC000725C7E70825C5E7003C014000000240A2
:1010DC0000380240001402400369194214BF012079
:1010EC00002070470AB1816170470904FBE70000DA
:1010FC0008B5044B5969014202D0586101F06AFAF3
:10110C0008BD00BF003C0140F0B504468BB060B395
:10111C0090F8BD33056803F0FF021BB980F8BC23BF
:10112C0002F0C2FF032384F8BD33EB6B254613F4A6
:10113C00807355F8100B08BF236101F033F90FCD04
:10114C006E460FC60FCD0FC695E8030086E8030068
:10115C002546271D97E80E0055F8100B01F0E2F814
:10116C00064620B1022384F8BD33012550E0014628
:10117C00206801F01DF93046D4F804E01C264FF02D
:10118C00010C0146C2B2964500F101001CD80023A7
:10119C001C261946D8B2864503F1010322D80FCD7F
:1011AC006E460FC60FCD0FC695E8030086E8030008
:1011BC0097E80E00206801F03DF90123054600B3C5
:1011CC00022284F8BD23D0E706FB024383F83DC01E
:1011DC0083F83C20A3F8422083F83F1059649964AB
:1011EC001965CFE706FB004282F8FD1182F8FC017D
:1011FC0082F8FF11C2F80412C2F80812C2F81012D9
:10120C00C8E784F8380084F8BD33206801F0D6F9BB
:10121C0028460BB0F0BD00002DE9F341044618B987
:10122C00012002B0BDE8F0810368DD0710D423680B
:10123C00980758D423681A0700F19A8023685B0733
:10124C0000F1B880A269002A40F019810020E8E77B
:10125C00A64B9A6802F00C02042A07D09A6802F096
:10126C000C02082A0AD15B68590207D59F4B1B68F0
:10127C009A03DCD56368002BD9D1D1E763689B4D09
:10128C00B3F5803F11D12B6843F480332B60FFF70B
:10129C0079F9964D06462B689B03C8D4FFF772F973
:1012AC00801B6428F7D90320BBE7B3F5A02F04D12A
:1012BC002B6843F480232B60E5E72A6822F4803204
:1012CC002A602A6822F480222A60002BDFD1FFF7E3
:1012DC0059F906462B689F03A9D5FFF753F9801BD4
:1012EC006428F7D9DFE7814B9A6812F00C0F07D00E
:1012FC009A6802F00C02082A11D15B685E020ED4C7
:10130C007A4B1A68950702D5E268012A88D11A68C7
:10131C00216922F0F80242EAC1021A608AE7E26807
:10132C00734BB2B101221A60FFF72CF96F4D0646D0
:10133C002B68980707D52B68226923F0F80343EA3A
:10134C00C2032B6076E7FFF71DF9801B0228EFD94B
:10135C00A9E71A60FFF716F9644D06462B68990742
:10136C007FF568AFFFF70EF9801B0228F6D99AE7D4
:10137C006269604B7AB101221A60FFF703F95B4D89
:10138C0006466B6F9F073FF559AFFFF7FBF8801BC5
:10139C000228F6D987E71A60FFF7F4F8534D064692
:1013AC006B6F98077FF54AAFFFF7ECF8801B0228AC
:1013BC00F6D978E74D4B1A6C12F0805228D1019275
:1013CC001A6C42F080521A641B6C03F08053019328
:1013DC00019B0126484D2B68D9051BD5A368434DAD
:1013EC00012B27D12B6F43F001032B67FFF7CAF8B2
:1013FC003E4D074641F288382B6F9B0739D5002E9E
:10140C003FF420AF394A136C23F08053136419E76F
:10141C000026DFE72B6843F480732B60FFF7B2F8EC
:10142C0007462B68DA05D9D4FFF7ACF8C01B0228A5
:10143C00F7D938E7052B04D12B6F43F004032B6746
:10144C00D0E72A6F22F001022A672A6F22F00402E9
:10145C002A67002BCAD1FFF795F841F28838074666
:10146C002B6F9807CBD5FFF78DF8C01B4045F7D9EC
:10147C0019E7FFF787F8C01B4045BDD913E71B4D93
:10148C00AB6803F00C03082B3FF4CAAE1B4E0023D1
:10149C00022A336034D1FFF775F807462B6899019F
:1014AC001ED4226AE3691343626A43EA8213E26A36
:1014BC0043EA0263A26A0D4C5208013A43EA024322
:1014CC006B6001233360FFF75DF8054623689A01D2
:1014DC003FF5BCAEFFF756F8401B0228F6D9E2E602
:1014EC00FFF750F8C01B0228D8D9DCE600380240C0
:1014FC0000004742800E47420070004060004742A7
:10150C00FFF740F804462B689B017FF59FAEFFF771
:10151C0039F8001B0228F6D9C5E600BF134908B5F7
:10152C008B6803F00C03042B03D0082B03D010485A
:10153C0008BD104808BD4A684B68496813F480031D
:10154C0014BF0C480A48C1F3881118BF002302F0DD
:10155C003F02A1FB0001FEF743FE044B5B68C3F3A3
:10156C00014301335B00B0FBF3F008BD00380240CF
:10157C000024F40000127A002DE9F0410D460446D7
:10158C0010B90120BDE8F081444B1A6802F00F023B
:10159C008A4228D321688F072DD4C80740D43F4BEB
:1015AC001A6802F00F02954266D3226851076CD478
:1015BC00130707D53A4A2169936823F4604343EA39
:1015CC00C1039360FFF7AAFF354B364A9B68C3F300
:1015DC000313D35CD840344B18600020FEF788FF0F
:1015EC000020BDE8F081CAB21A701B6803F00F032B
:1015FC009942C6D1CEE72A4B11F0040F1EBF9A6850
:10160C0042F4E0529A600E0742BF9A6842F460427C
:10161C009A609A68A06822F0F00202439A60BCE7D4
:10162C0062681F4B012A1DD11B6813F4003FA8D020
:10163C001B4EB36823F003031343B360FEF7A2FF02
:10164C0041F288380746B368626803F00C03B3EBC9
:10165C00820FA4D0FEF796FFC01B4045F3D90320A0
:10166C00BDE8F081911E01291B6802D813F0007FA0
:10167C00DDE713F0020FDAE7EAB21A701B6803F029
:10168C000F039D427FF47DAF8FE70549E0688B68BF
:10169C0023F4E05303438B608AE700BF003C024015
:1016AC0000380240A842000808000020014B1868CE
:1016BC00704700BF08000020044B054A9B68C3F329
:1016CC008223D35C034A1068D8407047003802402C
:1016DC00B842000808000020044B054A9B68C3F37D
:1016EC004233D35C034A1068D8407047003802403C
:1016FC00B842000808000020036A23F001030362CB
:10170C00036A70B5446882690D6822F073022A433B
:10171C008D6823F002032B430E4DA84202D00E4ECF
:10172C00B04210D1CE6823F008033343A84223F013
:10173C00040302D0084DA84205D14D698E6924F4EA
:10174C00407435432C43446082614A6842630362AF
:10175C0070BD00BF0000014000040140036A23F487
:10176C0080730362036A70B54468C2690D6822F025
:10177C0073022A438D6823F4007343EA0523114D49
:10178C00A84203D005F58065A84214D1CD6823F496
:10179C00006343EA05230B4DA84223F4806303D076
:1017AC0005F58065A84206D14D698E6924F4405434
:1017BC00354344EA05144460C2614A68C26303625B
:1017CC0070BD00BF00000140036A23F48053036224
:1017DC00036A30B54468C2690D6822F4E64242EAF5
:1017EC0005228D6823F4005343EA0533084DA842C3
:1017FC0003D005F58065A84204D14D6924F48044DA
:10180C0044EA85144460C2614A680264036230BDD4
:10181C00000001407047036889B1042907D01A6A97
:10182C0022F001021A621A6A42F001021A621A6A62
:10183C0022F010021A621A6A42F0100206E01A6ACA
:10184C0022F001021A621A6A42F001021A621A6844
:10185C0042F001021A6000207047036859B1042954
:10186C0005D01A6A22F001021A621A6A1A621A6AFE
:10187C0022F0100202E01A6A22F001021A621A6ABD
:10188C001A62196A41F21112114208D1196A40F216
:10189C004442114202BF1A6822F001021A60002071
:1018AC0070470000304A0368904212D0B0F1804F6C
:1018BC000FD0A2F57C4290420BD002F58062904290
:1018CC0007D002F58062904203D002F57842904234
:1018DC0019D14A6823F070031343234A904229D04C
:1018EC00B0F1804F26D0A2F57C42904222D002F576
:1018FC00806290421ED002F5806290421AD002F5AE
:10190C007842904216D0194A904213D002F5806268
:10191C0090420FD002F5806290420BD0A2F5983223
:10192C00904207D002F58062904203D002F58062AB
:10193C00904203D1CA6823F4407313434A6923F0DD
:10194C008003134303608B68C3620B688362064B8E
:10195C00984203D003F58063984201D10B6903636D
:10196C0001234361704700BF00000140004001406B
:10197C0010B50446A0B190F83D3003F0FF021BB93E
:10198C0080F83C2002F0A0F9022384F83D30206856
:10199C00211DFFF787FF012384F83D30002010BD87
:1019AC00012010BD10B50446A0B190F83D3003F0F5
:1019BC00FF021BB980F83C20FFF72CFF022384F8B0
:1019CC003D302068211DFFF76DFF012384F83D3069
:1019DC00002010BD012010BDF8B50C4605460028AE
:1019EC0043D090F83D3003F0FF021BB980F83C2047
:1019FC0002F082F92946022351F8040B85F83D3098
:101A0C00836823F4804323F007038360FFF74AFFC6
:101A1C002868236886688269A168076A1E43A369DF
:101A2C0022F4407222F0030241EA0323134323F40D
:101A3C007C422369E1691B0143EA0123E1680B4302
:101A4C00216A22F0FC0243EA01331343616927F057
:101A5C00AA026768866047EA01178361174301236E
:101A6C00076285F83D300020F8BD0120F8BD00006C
:101A7C00036A23F010030362036A70B54468826939
:101A8C000D6822F4E64242EA05228D6823F0200319
:101A9C0043EA0513104DA84203D005F58065A84212
:101AAC0014D1CD6823F0800343EA05130A4DA842F4
:101ABC0023F0400303D005F58065A84206D14D699B
:101ACC008E6924F44064354344EA850444608261A1
:101ADC004A688263036270BD0000014038B590F81B
:101AEC003C30012B04464FF0020018D0012384F83F
:101AFC003C3084F83D001D460C2A0BD8DFE802F080
:101B0C00070A0A0A100A0A0A140A0A0A18002068A4
:101B1C00FFF7F2FD002084F83D5084F83C0038BDFE
:101B2C002068FFF7A5FFF5E72068FFF717FEF1E740
:101B3C002068FFF749FEEDE710B584680A4324F4EA
:101B4C007F4442EA03232343836010BD90F83C306A
:101B5C00012B70B504464FF0020019D084F83D00FB
:101B6C002068012384F83C30836823F47F4323F0FE
:101B7C00770383600B68402B65D015D8102B0CD0E5
:101B8C0007D853B10123002084F83D3084F83C0081
:101B9C0070BD202B01D0302BF4D1826843F00703A9
:101BAC0022F0700213431AE0602B34D019D8502B5A
:101BBC00E8D14A68CE68016A056A25F0010505621C
:101BCC00836921F00A0123F0F00343EA06130A4368
:101BDC0083610262836823F0700343F057038360D0
:101BEC00D0E7702B0CD0B3F5005FCBD1CB684A6833
:101BFC008968FFF7A1FF2268936843F4804308E0EB
:101C0C00CB684A688968FFF797FF2268936843F0AE
:101C1C0077039360B6E74D68CE68016A21F0100136
:101C2C0001628269036A22F4704223F0A00343EA42
:101C3C00051342EA063282610362836823F0700363
:101C4C0043F06703CBE74A68CE68016A056A25F062
:101C5C0001050562836921F00A0123F0F00343EAD0
:101C6C0006130A4383610262836823F0700343F016
:101C7C004703B4E7036A01F01F0110B501248C403F
:101C8C0023EA04030362036A8A401A43026210BD0A
:101C9C0010B5044600220068FFF7ECFF2368124AD7
:101CAC00934203D002F5806293420DD1196A41F23E
:101CBC001112114208D1196A40F24442114202BF7A
:101CCC005A6C22F400425A64196A41F21112114200
:101CDC0008D1196A40F24442114203D11A6822F029
:101CEC0001021A60002010BD0000014010B504462E
:101CFC0001220068FFF7BEFF23680B4A93420ED007
:101D0C0002F5806293420AD09A6802F00702062A12
:101D1C0003D01A6842F001021A60002010BD5A6C00
:101D2C0042F400425A64EFE700000140FFF7DEBFC7
:101D3C0090F83C30012B30B54FF0020314D00468FE
:101D4C0080F83D306268A3680D68496822F0700223
:101D5C0023F080030B432A436260A360012380F8C5
:101D6C003D30002380F83C30184630BD90F83C30B4
:101D7C00012B1FD0CB688A6823F4407313434A6845
:101D8C0023F4806313430A6823F4006313430A6942
:101D9C0023F4805313434A6923F400531343CA6951
:101DAC0023F48043134302685364002380F83C30CF
:101DBC0018467047022070470368DA6822F4907264
:101DCC00DA605A6922F001025A61202380F83A3015
:101DDC00704700002DE9F0470668C2683369C16995
:101DEC0023F4405313433361044683680069F2685B
:101DFC000343606922F41642034322F00C020B43A6
:101E0C001343F3607369A26923F440731343B1F570
:101E1C00004F73617A4B7CD19E4203D003F58063F3
:101E2C009E4244D1FFF758FC192505FB00F360686E
:101E3C004FF064094000B3FBF0F3B3FBF9F34FEA46
:101E4C000318FFF749FC636868435B00B0FBF3F7CA
:101E5C00FFF742FC636868435B00B0FBF3F3B3FB32
:101E6C00F9F309FB1373DB003233B3FBF9F35B00BB
:101E7C0003F4F877FFF730FC626868435200B0FB5C
:101E8C00F2FAFFF729FC636868435B00B0FBF3F3DD
:101E9C00B3FBF9F309FB13A3DB003233B3FBF9F308
:101EAC0003F0070343443B44B360BDE8F087FFF7FE
:101EBC0003FC192505FB00F360684FF06409400032
:101ECC00B3FBF0F3B3FBF9F34FEA0318FFF7F4FBA2
:101EDC00636868435B00B0FBF3F7FFF7EDFB6368E7
:101EEC0068435B00B0FBF3F3B3FBF9F309FB13732B
:101EFC00DB003233B3FBF9F35B0003F4F877FFF745
:101F0C00DBFB626868435200B0FBF2FAFFF7D4FBCC
:101F1C00B9E79E4202D03B4B9E4240D1FFF7DCFB1F
:101F2C00676819254FF0640905FB00F3BF00B3FB8C
:101F3C00F7F3B3FBF9F31F01FFF7CEFB63686843BC
:101F4C009B00B0FBF3F8FFF7C7FB636868439B008B
:101F5C00B0FBF3F3B3FBF9F309FB13831B0132332F
:101F6C00B3FBF9F303F0F008FFF7B6FB62686843C4
:101F7C009200B0FBF2FAFFF7AFFB636868439B007B
:101F8C00B0FBF3F3B3FBF9F309FB13A31B013233DF
:101F9C00B3FBF9F303F00F0343EA080383E7FFF7FE
:101FAC008BFB676819254FF0640905FB00F3BF0034
:101FBC00B3FBF7F3B3FBF9F31F01FFF77DFB63688A
:101FCC0068439B00B0FBF3F8FFF776FB636868434C
:101FDC009B00B0FBF3F3B3FBF9F309FB13831B0179
:101FEC003233B3FBF9F303F0F008FFF765FB6268DB
:101FFC0068439200B0FBF2FAFFF75EFBBDE700BF4F
:10200C000010014000140140F8B504460E46174676
:10201C001D4621680B6836EA030301D10020F8BD88
:10202C006B1CF7D095B92368DA6822F4D072DA60A9
:10203C005A6922F001025A61202384F8393084F85D
:10204C003A30002384F838300320F8BDFEF79AFAB2
:10205C00C01B8542DDD2E6E710B5044640B390F8CC
:10206C00393003F0FF021BB980F8382001F0B6FEBE
:10207C002268242384F83930D36823F40053D360C6
:10208C002046FFF7A7FE23681A6922F490421A61D2
:10209C005A6922F02A025A61DA6842F40052DA6074
:1020AC0000202023E06384F8393084F83A3010BDE6
:1020BC00012010BD2DE9F0411F4690F83930202B3E
:1020CC0004460D4690464FD100294AD0002A48D0EC
:1020DC0090F83830012B47D0012380F8383000239A
:1020EC00C363212380F83930FEF74CFAA4F824801E
:1020FC000646A4F82680E38C9BB26BB93B4632466D
:10210C0040212046FFF780FFB0B9202384F83930F6
:10211C0084F83800BDE8F081E38C013B9BB2E3848A
:10212C00A368B3F5805F32463B464FF080012046F2
:10213C000ED1FFF769FF10B10320BDE8F0812B88A9
:10214C002268C3F308035360236943B90235D2E70D
:10215C00FFF75AFF0028EFD123682A785A6001351F
:10216C00C9E70120BDE8F0810220BDE8F081000044
:10217C00134690F83A20202A73B5054638D1002929
:10218C0034D0002B32D090F83820012A30D00122E4
:10219C00002480F838202222C4638162838580F871
:1021AC003A20406B134AC2632E68134A0264134AE6
:1021BC00C26404650A46311DFEF77CFB2B68019452
:1021CC001A6801925A680192019ADA6885F83840C7
:1021DC0042F48072DA605A6942F001025A615A691B
:1021EC0042F040025A61204602B070BD0120FBE76C
:1021FC000220F9E76B220008A5220008B122000892
:10220C0003685A6990F83910212910B5044611D188
:10221C0011060FD55A69006B22F080025A6108B181
:10222C00FEF786FB2268D36823F0C003D36020231B
:10223C0084F8393023685A6994F83A1022290CD161
:10224C0052060AD55A69606B22F040025A6108B1F5
:10225C00FEF76EFB2046FFF7AFFD002010BD08B562
:10226C000368826B1B6813F4807310D1D3851368D9
:10227C00D96821F48071D960596921F00101596143
:10228C00596921F040015961202382F83A301046F7
:10229C0000F026FB08BD704708B5806BFFF7FBFF0D
:1022AC0008BD7047816B08B50B685A6991F8390005
:1022BC0021280AD1120608D50022CA84DA6822F035
:1022CC00C002DA60202281F839205B6991F83A204B
:1022DC00222A06D15B0604D50023CB850846FFF7DE
:1022EC006BFDCB6B43F01003CB630846FFF7D9FFB4
:1022FC0008BD00000A4B013B01D103207047026965
:10230C00002AF8DA0369064A43F001030361013A33
:10231C00F3D0036913F00103F9D11846704700BFDD
:10232C00410D030084B038B505AD85E80E000A9B5D
:10233C00012B044625D1836B23F480338363C3685C
:10234C0023F4840323F04003C360C36823F44013D5
:10235C00C360119B012B02BFC36843F48013C3609D
:10236C00FFF7C8FF089B012B07D1A36843F00603B6
:10237C00A360A36843F02003A360BDE8384004B019
:10238C007047C36843F04003C360FFF7B3FF0E9B75
:10239C0023B9A36B43F48033A363E3E7A36B23F468
:1023AC008033F9E7836823F00103836000207047D2
:1023BC0008B5C368012923F0C043C36008D1C368C2
:1023CC0043F00053C3603220FEF7E2F8002008BD52
:1023DC0019B9C36843F08043F4E7012008BD00003D
:1023EC00890141F02001064A0161013A05D00369D7
:1023FC0013F02003F9D1184670470320704700BF33
:10240C00410D03001023064A0361013A05D003690C
:10241C0013F01003F9D1184670470320704700BF22
:10242C00410D0300D0F800381943C0F80018002003
:10243C007047000084B02DE9F047044609A880E8F5
:10244C000E0000230C9F139E8846194603F1400290
:10245C0004EB820201330F2B5160F7D1002E73D1A4
:10246C00A36B43F40013A363A36B23F40023A363B4
:10247C00A36B23F48023A3630023C4F8003ED4F899
:10248C000038C4F800380E9B012B04F5006565D1AB
:10249C000B99002960D12046FFF7C4FF102120467C
:1024AC00FFF79EFF01462046FFF7ACFF002857D1EF
:1024BC00081C18BF012000232B6104F510626B610E
:1024CC001946EB614FF0904E4FF0006C4FF67F3990
:1024DC00434547D1002104F530628E464FF0904CB5
:1024EC004FF000684FF67F398B424ED12B69012F8C
:1024FC0023F480732B6107D12E4B2B632B6B43F48E
:10250C00803343F003032B630023A3616FF08043FC
:10251C0063611FB9A36943F01003A361A269264B41
:10252C001343A3610F9B1BB1A36943F00803A36181
:10253C00012E01BFA36943F0804343F00403A36160
:10254C00BDE8F04704B07047236823F40013236000
:10255C00A36B43F400238EE719469CE703219AE70B
:10256C000120A8E7D2F800A0BAF1000F0BDA3BB9B2
:10257C00C2F800C011610133C2F808902032A7E7FD
:10258C00C2F800E0F6E71160F4E7D2F800A0BAF167
:10259C00000F0CDA41B9C2F80080C2F810E001312A
:1025AC00C2F8089020329FE7C2F800C0F5E7C2F8E5
:1025BC0000E0F2E70001800000383C8008B5D0F85C
:1025CC00043843F00203C0F804380320FDF7E0FFA1
:1025DC00002008BD012805D1034B80221A70034B43
:1025EC0000221A70704700BF420000203800002003
:1025FC00F0B5294A1378BF2B4DD1137AF92B4AD158
:10260C009078D178254BFB2814BF6FEA51016FEA03
:10261C00111101F00F019970D1789D78FB29117976
:10262C0014BF6FEA51016FEA111101F00F01D9705B
:10263C005179DF78A32904BF2E21197191796FEAA2
:10264C0010146FEA510101F00F0604F00F0442F26E
:10265C001071D0795C704C434FF47A7101FB0541D9
:10266C00642414FB07146FEA50000A2100F00F00D9
:10267C0011FB064152789871014409485E71962A03
:10268C00016002D12B221A70F0BD562A01BF2D22F7
:10269C0049421A700160F0BD6806002078060020DF
:1026AC0048000020F0B5224B1A78BF2A3FD1DA7AC5
:1026BC00F92A3CD11F4C012221469818C0786FEAA8
:1026CC00500000F00F0010550132042AF5D1DA79D0
:1026DC004D78587ACF78A32A04BF2E2222711A7A09
:1026EC009B786FEA520202F00F068A784E714FF413
:1026FC007A74544342F2107202FB0542642414FBB8
:10270C0007246FEA50000A2200F00F0012FB064269
:10271C00024488710848962B026004D12B23524244
:10272C000B700260F0BD562B04BF2D230B70F0BD57
:10273C003C070020A00100205400002030B5274B9E
:10274C009978DC781A795D79002002233139042BD1
:10275C001CD0052B1ED0032B06D0032904D8DFE890
:10276C0001F0020C0E108020412C0CD0522C01D008
:10277C00302C0BD100F0FB0008E04020F4E72020C7
:10278C00F2E71020F0E740F00400C0B2612A17D045
:10279C000BD892B1532D1FD0552D1BD0442D08BFF3
:1027AC0008200133062BD2D130BD622A0DD0632A0A
:1027BC00F0D140F00300C0B2ECE700F0FC00E9E718
:1027CC0000F0FD0040F00100E4E700F0FE0040F0F6
:1027DC000200DFE70C20E4E70020E2E749070020D5
:1027EC002DE9F041344A35491378022B21D1137B62
:1027FC00032B1ED100230B703149985C58540133C4
:10280C000D2BFAD12E4BDA7802F0F002402A43D18C
:10281C00D3F807209B79012B3AD12A490A602A4A1E
:10282C0013702A4B01221A70294B00221A70BDE832
:10283C00F08101230B7027491F4C0A68204FDFF8E9
:10284C009CE00020034614F8015B032D03F1010604
:10285C0006D194F800C0BCF1020F04BF324601202F
:10286C009A4209DC9B1A0EF803500D2E3346EAD11E
:10287C000028C7D00A60C5E7C2F10D0C07EB0C08A5
:10288C009C4508F80350C4BF13F80E50DD55ECE717
:10289C00022BC6D11049C1E7202A0AD19B79012B02
:1028AC0003D11122084B1A70BBE7022BB9D11222AB
:1028BC00F8E7BDE8F08100BF700000204300002065
:1028CC00D40600207406002069000020600000205F
:1028DC00610000204C00002050060020540600200F
:1028EC0002681F4B9A4210B5044606D10A221D49B4
:1028FC001D48FFF73DFCFFF77BFE22681B4B9A42FD
:10290C0008D10A221A491B48FFF732FCFFF716FFC1
:10291C00194B18702268194B9A4208D10A22144993
:10292C001748FFF725FCFFF709FF134B18702268B7
:10293C00144B9A4206D1FFF753FF0D22124913484C
:10294C00FFF716FC2268124B9A4208D10D2211494E
:10295C001148FFF70DFCBDE81040FFF7A3BE10BDFA
:10296C000044004068060020140800200048004085
:10297C004907002008020020FC080020004C004001
:10298C0094070020005000407000002094060020A6
:10299C00001401403C0700205407002010B50144EE
:1029AC0000230C1AA24201DA184610BD11F8014B93
:1029BC002344DBB2F5E7000038B5154C0546002181
:1029CC002046FFF7B3F904212046FFF7AFF90821A1
:1029DC002046FFF7ABF90C212046FFF7A7F9284654
:1029EC00FDF7D6FD00212046FFF752F904212046C1
:1029FC00FFF74EF908212046FFF74AF920460C2133
:102A0C00FFF746F9C5F10A00BDE83840FDF7C0BD37
:102A1C00FC06002070B51C4D2B7823BB1B4B1B7880
:102A2C000BBB1B4C092262703822E2707D22022102
:102A3C000126227120460A2221706371E3712372F0
:102A4C006372A372A670A671FFF7A8FF0323E0724E
:102A5C0023730D22142321460E48FFF72BFBC820AD
:102A6C002E70FDF795FD0C4B0C491A680978013254
:102A7C0001291A6001D0142A04DD044900220A70CD
:102A8C002A701A6070BD00BF610000206800002031
:102A9C0084060020940600206400002069000020B9
:102AAC002DE9F0413B4D3C4E2A7886ED000A112A67
:102ABC0010EE103A2CD0DFF8F08098F800203ABBDA
:102ACC00364C3749627109201A0A60701C200127A4
:102ADC00E070227271201A0C0F7020710221E371C8
:102AEC0062721B0E0A2220462170A372A770A77176
:102AFC00FFF754FF0323E07223730D226423214656
:102B0C002848FFF7D7FA322088F80070FDF740FD0F
:102B1C002B78122B2BD0244F3B7843BB1F4C092214
:102B2C00627063711C223368E270712222711A0A7E
:102B3C0022721A0C02214FF00108E37162721B0E13
:102B4C000A2220462170A171A37284F80280FFF73B
:102B5C0025FF0323E07223730D22642321461148C1
:102B6C00FFF7A8FAC82087F80080FDF711FD0F4B7E
:102B7C0029781A68122902F101021A6001D0142A6C
:102B8C0005DD074900220A7007491A600A70BDE882
:102B9C00F08100BF69000020800600208406002020
:102BAC0068000020940600206100002064000020D2
:102BBC0070B51A4C102666700616A6700614E670D0
:102BCC00607106120816A0710814E0716172081287
:102BDC001116A1721114E172627311121A16A273FA
:102BEC001A140225E2731A122072217322742946D8
:102BFC0011222046637425702671FFF7CFFE032344
:102C0C00E3740A2323750D23A07463752146642392
:102C1C0016220348BDE87040FFF74CBAFD080020AF
:102C2C000802002030B595B03022002108A801F030
:102C3C001DFB0021142203A801F018FB00241D4BDE
:102C4C0001941A6C42F080521A641B6C03F080538E
:102C5C000193019B184B02941A6842F440421A608B
:102C6C001B6803F440430293029B012308934FF427
:102C7C00A02309934FF480030F9304231093A823EC
:102C8C000225119308A8072313930E951295FEF7AE
:102C9C00C3FA0F2303934FF4A053069305214FF46B
:102CAC00805303A8049505940793FEF765FC15B0B3
:102CBC0030BD00BF003802400070004038B5894B71
:102CCC00894C1B7813F0B00F4AD02278D50719D550
:102CDC00FFF7A0FE854B1B68642B05DD9FED840A76
:102CEC00BDE83840FFF7DCBE9FED820AFFF7D8FE47
:102CFC00814A00231370814A1370237823F0010357
:102D0C00237038BD12F0400207D104217C48FEF735
:102D1C00E9F9237843F040032370227812F0200263
:102D2C0007D108217648FEF7DDF9237843F020031C
:102D3C002370217811F0040106D17248FDF7B9FC1B
:102D4C00237843F0040323702378980700F1BB80A9
:102D5C0004216D48FEF75FFD237843F00203CFE7B3
:102D6C0013F04005237850D043F00102590622702D
:102D7C0008D5012204216248FEF7B4F9237823F028
:102D8C004003237023789A0608D5012208215C4859
:102D9C00FEF7A8F9237823F0200323702378DB06B1
:102DAC000DD5012202215648FEF79CF90122102173
:102DBC005348FEF797F9237823F0100323702378F8
:102DCC001D0709D501224FF400714D48FEF78AF911
:102DDC00237823F0080323702378580707D50021A4
:102DEC004848FDF794FC237823F0040323702378E0
:102DFC00990768D504214448FEF72FFD434B002268
:102E0C001A60237823F002037AE7DA0709D5FFF773
:102E1C0001FE364B1B68642B56DD9FED350AFFF720
:102E2C003FFE23785B0608D5012204213448FEF7C7
:102E3C0059F9237823F04003237023789D0608D595
:102E4C00012208212E48FEF74DF9237823F02003A8
:102E5C0023702378D8060DD5012202212848FEF7CD
:102E6C0041F9012210212648FEF73CF9237823F082
:102E7C00100323702378190709D501224FF4007130
:102E8C001F48FEF72FF9237823F0080323702378CB
:102E9C005A0707D500211B48FDF739FC237823F08E
:102EAC000403237023789B070AD504211648FEF7E8
:102EBC00D4FC164B00221A60237823F002032370F3
:102ECC00134B00221A7038BD9FED0A0AFFF7E8FD7C
:102EDC00094B1D70094B1D70237823F001032370DF
:102EEC009FE700BF3800002042000020740600203D
:102EFC00CDCC8CBF00000000290000204400002035
:102F0C0000180240E4060020D40700203400002002
:102F1C002800002008B501221E210F48FEF7E2F818
:102F2C0000210E48FDF7F3FB04210D48FEF795FC3C
:102F3C00FFF770FD9FED0B0AFFF7B2FD0A4B0B4834
:102F4C00002201211A70FEF7C7F818B9084B187047
:102F5C00084B187008BD00BF00180240E4060020A2
:102F6C00D4070020000000002900002000140240BB
:102F7C00420000203800002008B50C4B93F90030BB
:102F8C00002B03DABDE80840FFF7C4BF0A2208494A
:102F9C000848FFF7EDF80A2205490748FFF7E8F85B
:102FAC00064B1A78064B1A7008BD00BF4200002071
:102FBC00490700200802002094070020FC0800208C
:102FCC0038000020F8B52E4B1A782E4B032A05D862
:102FDC00DFE802F00223252700221A701B782A4E04
:102FEC002A482B4CA3EB8302326000210822FDF708
:102FFC00BAFB4FF08043274A5B6A13602578264A58
:10300C00274613602DBB254B1B68132B0BDD0120B2
:10301C00FFF7D2FC01232370F8BDB422DDE7782240
:10302C00DBE73C22D9E700211D48FEF731FE0421E5
:10303C001B48FEF72DFE08211948FEF729FE0C212E
:10304C001748FEF725FE0A20FDF7A2FA00233B7075
:10305C00F8BD012D0AD1114B186833689842E2DB98
:10306C00132804DC0220FFF7A7FC2570F8BD823082
:10307C00322390FBF3F0C0B2092828BF0920F2E7F5
:10308C0041000020300000205C000020E4060020FD
:10309C0028000020340000205000002054000020A4
:1030AC00FC06002038B5224B224D1B78224C032BFA
:1030BC0005D8DFE803F002282A2C00232B702B788C
:1030CC001E4808220021FDF74EFB4FF080431C4A9E
:1030DC005B6A257813601B4A15F0100513600DD13F
:1030EC002A4602211848FDF7FDFF2A4610211648F2
:1030FC00FDF7F8FF237843F0100323700A20BDE896
:10310C003840FDF745BA1523D8E72A23D6E72278AD
:10311C003F2312F008022B70D1D14FF400710A48F2
:10312C00FDF7E0FF237843F008032370C7E700BFE7
:10313C00410000204000002042000020E406002056
:10314C0034000020500000200018024073B5544D8C
:10315C00544955480A22FFF70BF8FFF75BFC2B7814
:10316C00524A032B06D8DFE803F0022929294FF431
:10317C007A7111604E4912680968914220DD022172
:10318C004C4A11704C4A4D4C1278002A4FD04C4E80
:10319C000023019333681A6801925B6801933046EF
:1031AC00019BFFF72DF80D2246493046FEF7E0FF54
:1031BC00237853B90323237002B070BD0A21D8E7DA
:1031CC0052429142DEDA0121DAE7012B11D12B7840
:1031DC00032BEFD8DFE803F02D02070A9FED3A0A24
:1031EC00FFF75EFCE6E7B7EE000AF9E79FED370A5A
:1031FC00F6E7022B0FD12B78032BDBD8DFE803F09B
:10320C00190205089FED320AEAE7BFEE000AE7E76C
:10321C009FED300AE4E7032BCED1264B1B78012B14
:10322C0001D10123C7E7022BC6D10223C3E72278C1
:10323C0012B99FED290AD3E7012A15D1274A126842
:10324C00B2F5FA6FB6DA032BB6D8DFE803F01A0240
:10325C00070A9FED1D0AFFF723FCADE7B7EE000A46
:10326C00F9E79FED1A0AF6E7022A16D11B4A1268F3
:10327C00B2F5C87F9EDD032B9ED8DFE803F0020574
:10328C00080B9FED150AE6E79FED110AE3E7BFEE89
:10329C00000AE0E79FED0F0ADDE7032ABCE700BF59
:1032AC004100002068060020140800202C0000209B
:1032BC00480000204400002043000020290000208A
:1032CC009406002070000020CDCC8C3F6666663FD3
:1032DC00CDCC8CBF666666BF000000007406002073
:1032EC0013B50A2241494248FEF742FF414B1B7875
:1032FC0083B1414C0023019323681A6801925B68E7
:10330C0001932046019BFEF77BFF0D223B49204693
:10331C00FEF72EFFFFF77EFB394B3A4A1B78032B47
:10332C0006D8DFE803F0021416184FF47A71116016
:10333C00354912680868354990420FDD02220A703F
:10334C00334A1078144678B99FED320A1EE0642196
:10335C00EDE7C821EBE74FF49671E8E75242904253
:10336C00B4BF01220022EAE701281BD1032B0FD89E
:10337C0001A252F823F000BF553300089533000822
:10338C00A5330008AB3300089FED230AFFF788FB39
:10339C000323237002B010BDB7EE000AF6E79FEDD1
:1033AC001F0AF3E7022816D1032BF1D801A252F819
:1033BC0023F000BF55330008D1330008D733000881
:1033CC00DD3300089FED160AE0E7BFEE000ADDE7EB
:1033DC009FED140ADAE70328DCD10B78012B01D11D
:1033EC001370D7E7022BAFD1FAE700BF68060020B5
:1033FC0014080020430000209406002070000020D8
:10340C00410000203C000020480000204400002027
:10341C002900002000000000CDCC8C3F6666663F82
:10342C00CDCC8CBF666666BF38B5164B164C1B7878
:10343C00032B05D8DFE803F00210121400232370CD
:10344C002378124808220021FDF78DF94FF08043B4
:10345C005A6A0F4B1A6038BD1523F0E72A23EEE7A2
:10346C000C4D2A783F2312F008022370E8D14FF458
:10347C0000710948FDF736FE2B7843F008032B70DA
:10348C00DEE700BF4100002058000020E4060020C9
:10349C0034000020420000200018024038B5214BB7
:1034AC00214D1B78214C032B05D8DFE803F00226B5
:1034BC00282A00232B702B781D4808220021FDF7A9
:1034CC0052F94FF0804325785A6A1A4B15F01005C3
:1034DC001A600DD12A4602211748FDF703FE2A4631
:1034EC0010211548FDF7FEFD237843F010032370DF
:1034FC000220BDE83840FDF74BB81523DAE72A2344
:10350C00D8E722783F2312F008022B70D3D14FF466
:10351C0000710948FDF7E6FD237843F0080323709A
:10352C00C9E700BF410000205900002042000020E4
:10353C00E4060020340000200018024010B5144CA2
:10354C0000212046FEF7F2FB04212046FEF7EEFB9D
:10355C0008212046FEF7EAFB0C212046FEF7E6FB8D
:10356C000120FDF715F800212046FEF791FB042100
:10357C002046FEF78DFB08212046FEF789FB2046EE
:10358C000C21FEF785FB0120BDE81040FDF700B8CB
:10359C00FC060020124B134A1B7803F0030118069B
:1035AC00117005D5590701D5FFF70CBDFFF77ABD92
:1035BC005A0605D5580701D5FFF7C8BDFFF790BED1
:1035CC00990601D5FFF730BFDA0601D5FFF766BFC4
:1035DC0003F00C030C2B01D1FFF7B0BF704700BFF9
:1035EC0038000020410000202DE98048A3B019AE1E
:1035FC000024BD4DDFF82883FCF79EFFFFF712FB7C
:10360C0014220021304600F031FE04942B6BB74895
:10361C0043F004032B632B6B03F004030493049B10
:10362C0005942B6B43F020032B632B6B03F02003CF
:10363C000593059B06942B6B43F080032B632B6B3C
:10364C0003F080030693069B07942B6B43F0010356
:10365C002B632B6B03F001030793079B08942B6BD5
:10366C0043F040032B632B6B03F040030893089B40
:10367C0009942B6B43F010032B632B6B03F010039B
:10368C000993099B0A942B6B43F002032B632B6B5E
:10369C0003F002030A930A9B0B942B6B43F0080371
:1036AC002B632B6B03F008030B93012240F21E21BA
:1036BC000B9BFDF717FD22464FF481418C48FDF71B
:1036CC0011FD224640218948FDF70CFD22464FF49E
:1036DC0000718848FDF706FD4FF4005331468548CC
:1036EC00199301274FF0020ACDF868801B94FDF75F
:1036FC0007FC314680481997CDF86880CDF86CA04E
:10370C00FDF7FEFB402331467C4819931A941B9716
:10371C00FDF7F6FB40F25E233146744819931A9775
:10372C001B941C94FDF7ECFB4FF48143314670481D
:10373C0019934FF080081A971B941C94FDF7E0FB2B
:10374C0031466A48CDF864801A941B94FDF7D8FB77
:10375C004FF400733146674819931A971B941C94C5
:10376C00FDF7CEFB02942B6B43F400132B632B6BF6
:10377C0003F400130293029B03942B6B43F480031A
:10378C002B632B6B5E4D03F480032246214603937F
:10379C000B20039BFCF722FF0B20FCF753FF224668
:1037AC0021460C20FCF71AFF0C20FCF74BFF22469D
:1037BC0021460D20FCF712FF0D20FCF743FF22469B
:1037CC0021461020FCF70AFF1020FCF73BFF214696
:1037DC0022463920FCF702FF3920FCF733FF494819
:1037EC00494B8DF8658080E88800E123DFF834814F
:1037FC008DF866304FF4000304828DF864408DF828
:10380C0067408DF868408DF8694046618461C461F9
:10381C000362FDF779FA3D4BC8F800304FF00C0904
:10382C004FF4E1334046C8F804300093C8F8084020
:10383C00C8F80C40C8F81040C8F81840C8F81C402C
:10384C00C8F81490FEF708FC31484FF0A0424FF036
:10385C00040B80E80408C0F80CA00461C0F818A0A0
:10386C00C76104624462C7620463FDF74DFC294AD8
:10387C00746028462A601994FCF708FF22463146EA
:10388C00284619941A94FCF74EFF214610220EA8D4
:10389C0000F0ECFC21461C2212A81F4D0C940D9438
:1038AC0000F0E4FC21462022304600F0DFFC1B49EE
:1038BC00AC6040F61F52284685E80600EF602C618C
:1038CC006C61AC61FEF754F84FF480520EA9284697
:1038DC000E92FEF73BF92846FEF764F80CA9284631
:1038EC000C940D9420E000BF0038024000180240F8
:1038FC000004024000080240001402400000024094
:10390C00E4060020B408002000800240004800407B
:10391C004802002000740040FC060020000001401A
:10392C000000111008020020FEF702FA3022129259
:10393C0012A9224628461394CDF850A0159416943B
:10394C0017941894FEF7CAF85A4612A928461494EC
:10395C00FEF7C4F8082212A928461397CDF850A0F8
:10396C00FEF7BCF84A4612A928461494FEF7B6F89E
:10397C004FF40053314628461E9319941A941B9405
:10398C001C941D942094FEF7F1F92846DFF878A1D9
:10399C004C4D00F0F7F921462422304600F066FC2D
:1039AC004FF080428AE81400474ACAF80C2031468E
:1039BC0003221B971F975046444F454E1992129461
:1039CC001394CAF80840CAF81040CAF81840FEF719
:1039DC0003F812A9504612941394FEF7A9F93D4A24
:1039EC00009B3A6038467B60BC60FC603C61BC610B
:1039FC00FC61C7F81490FEF72FFB374A009B32602E
:103A0C0030467360B460F4603461B461F461C6F83C
:103A1C001490FEF721FB314B314A1A6018464FF4D3
:103A2C0016525A609C60DC601C619C61DC61C3F8BE
:103A3C00149000930192FEF70FFB2A49019A29601A
:103A4C0028466A60AC60EC602C61AC61EC61C5F836
:103A5C001490FEF701FB224621460620FCF7BEFD22
:103A6C000620FCF7EFFD009B1F49204C18460A224C
:103A7C00FEF77EFB0A221E494046FEF779FB0A221E
:103A8C001B493846FEF774FB0D221A493046FEF7E7
:103A9C006FFB0D221849194E2846FEF769FB594653
:103AAC005046FDF7B8FE164DFFF766FAFFF706F91C
:103ABC00FFF770FD134833682A6821680068FFF728
:103ACC0077F8F1E754070020FF933577940700202F
:103ADC0094060020004C00400050004014080020C8
:103AEC0000440040001401406806002050000020F3
:103AFC0049070020700000203C07002074060020BD
:103B0C004800002054000020D4070020704700001B
:103B1C0082B00C4B002100915A6C42F480425A64E2
:103B2C005A6C02F480420092009A01911A6C42F095
:103B3C0080521A641B6C03F080530193019B02B0FA
:103B4C00704700BF0038024010B5044688B01422FC
:103B5C00002103A800F08AFB2268124B9A421ED166
:103B6C0003F5E233002101911A6C0F4842F0005228
:103B7C001A641A6C02F000520192019A02911A6BAB
:103B8C0042F001021A631B6B03F001030293029BC8
:103B9C001023039303A903230493FDF7B1F908B091
:103BAC0010BD00BF0074004000000240F0B5044698
:103BBC008DB01422002107A800F058FB22683D4B61
:103BCC009A4274D1A3F59043002400941A6B3A489E
:103BDC0042F000721A631A6B02F000720092009AA3
:103BEC0001941A6B42F080621A631A6B02F08062C5
:103BFC000192019A02941A6B42F000621A631A6BDA
:103C0C0002F000620292029A03941A6B42F00402D0
:103C1C001A631A6B02F004020392039A04941A6B4F
:103C2C0042F001021A631A6B02F001020492049A28
:103C3C0005941A6B42F002021A631A6B02F002022C
:103C4C000592059A06941A6B42F040021A631B6B9C
:103C5C0003F040030693022703260B25069B0897C7
:103C6C00322307A907930A960B95FDF749F986238A
:103C7C0007A912480793089709940A960B95FDF724
:103C8C003FF94FF4005307A90D480793089709947F
:103C9C000A960B95FDF734F94FF4205307A9094800
:103CAC000793089709940A960B95FDF729F90DB01F
:103CBC00F0BD00BF0080024000080240000002403E
:103CCC0000040240001802400268094B9A4282B07C
:103CDC000BD100230193074B5A6C42F001025A643A
:103CEC005B6C03F001030193019B02B0704700BFB2
:103CFC00000001400038024070B5044688B0142220
:103D0C00002103A800F0B2FA2368B3F1804F33D13D
:103D1C0003F50E33002400941A6C184842F001028B
:103D2C001A641A6C02F001020092009A01941A6B48
:103D3C0042F001021A631A6B02F001020192019A1D
:103D4C0002941A6B42F002021A631B6B03F002031B
:103D5C0001250293022603A9029B0395049607955D
:103D6C00FDF7CEF8082303A90548039304960594A0
:103D7C0006940795FDF7C4F808B070BD000002402A
:103D8C000004024010B5044686B01422002101A89C
:103D9C0000F06CFA22680E4B9A4216D10023009365
:103DAC000C4B0D481A6B42F010021A631B6B03F09C
:103DBC0010030093009B4FF4D4430193022302930E
:103DCC0001A901230593FDF79BF806B010BD00BFB8
:103DDC000000014000380240001002402DE9F04381
:103DEC00054693B0142200210DA800F03FFA2B6871
:103DFC009A4A934236D19A4B9A489B4C002601968C
:103E0C001A6C42F400221A641A6C02F40022019219
:103E1C00019A02961A6B42F004021A631B6B03F0B0
:103E2C0004030293029B4FF440630D9302230E9301
:103E3C0001230F93032310930DA908231193FDF76E
:103E4C005FF88A4B23604FF0006363604FF480632C
:103E5C0023614FF48073A660E6606661A661E3613E
:103E6C00266252E0824A93425BD17D4B7D4800260C
:103E7C0003961A6C42F480121A641A6C02F48012C3
:103E8C000392039A04961A6B42F004021A631A6B9B
:103E9C0002F004020492049A05961A6B42F008028E
:103EAC001A631B6B03F0080305930824059B1194FC
:103EBC004FF480534FF002094FF0010803270DA96E
:103ECC000D93CDF83890CDF83C801097FDF718F88D
:103EDC0004230DA967480D931194CDF83890664CC6
:103EEC00CDF83C801097FDF70BF8644AA6604FF0B4
:103EFC00006384E80C004FF4806323614FF40033BB
:103F0C00E6606661A661E661236266622046FCF7A4
:103F1C0053FC08B1FFF7FAFD6C63A56313B0BDE861
:103F2C00F083574A934240D14D4B56480026069693
:103F3C001A6C42F400321A641A6C02F400320692C3
:103F4C00069A07961A6B42F001021A631A6B02F07A
:103F5C0001020792079A08961A6B42F008021A633C
:103F6C001B6B03F0080308930724089B1194082388
:103F7C004FF002094FF0010803270DA90D93CDF85E
:103F8C003890CDF83C801097FCF7BAFF20230DA990
:103F9C0038480D931194CDF83890CDF83C8010979B
:103FAC00394CFCF7ADFF394B4CE7394A934227D1DA
:103FBC002B4B3048374C002609961A6C42F4802261
:103FCC001A641A6C02F480220992099A0A961A6BE6
:103FDC0042F008021A631B6B03F008030A930A9B56
:103FEC004FF440730D9302230E9301230F9303237D
:103FFC0010930DA907231193FCF782FF264B21E7A1
:10400C00264A93428AD1164B1648254C00260B960D
:10401C005A6C42F020025A645A6C02F020020B9245
:10402C000B9A0C961A6B42F004021A631B6B03F08A
:10403C0004030C930C9BC0230D9302230E930123BA
:10404C000F93032310930DA908231193FCF758FF2A
:10405C00144B23604FF02063F7E600BF004C004088
:10406C0000380240000802408000002040600240FE
:10407C0000500040000C0240540800201060024028
:10408C000044004000000240E00000208860024034
:10409C0000480040A80100202860024000140140A4
:1040AC00400100202864024030B5044689B0142237
:1040BC00002103A800F0DAF82368B3F1A04F2FD148
:1040CC00184C194800250195236B43F00103236319
:1040DC00236B03F001030193019B4FF4E85303930B
:1040EC00022304930323069303A90A230793FCF7E3
:1040FC0007FF4FF4007303A90B4803930495059530
:10410C00FCF7FEFE636B43F0800363630295636C04
:10411C0043F480436364636C03F480430293029B17
:10412C0009B030BD00380240000002407047FEE785
:10413C00FEE7FEE7FEE7704770477047FCF716BADC
:10414C000120FCF7D5BF00000148FCF735BC00BFCF
:10415C00540800200148FCF72FBC00BFA801002028
:10416C000148FCF729BC00BF800000200148FCF787
:10417C0023BC00BFE00000200148FCF71DBC00BFC1
:10418C00400100200F49D1F8883043F47003C1F886
:10419C0088300D4B1A68002042F001021A609860BA
:1041AC001A6822F0847222F480321A60074A5A602C
:1041BC001A6822F480221A60D8604FF000638B607A
:1041CC00704700BF00ED00E00038024010300024C2
:1041DC00DFF834D0002103E00C4B5B584350043122
:1041EC000B480C4B42189A42F6D30B4A02E00023C0
:1041FC0042F8043B094B9A42F9D3FFF7C3FF00F096
:10420C0011F8FFF7F1F9704700000320D0420008C5
:10421C00000000200C0000200C00002014090020DD
:10422C00FEE7000070B50D4E0D4CA41BA41000252C
:10423C00A54209D10B4E0C4C00F020F8A41BA41085
:10424C000025A54205D170BD56F82530984701359B
:10425C00EEE756F8253098470135F2E7C8420008DA
:10426C00C8420008C8420008CC4200080244034679
:10427C00934200D1704703F8011BF9E7F8B500BF72
:10428C00F8BC08BC9E467047F8B500BFF8BC08BC2B
:04429C009E46704783
:1042A00000061016000610160000000000000000B6
:1042B00001020304060708090000000001020304CC
:0842C0005CBFFF7F010000005C
:0442C800D101000818
:0442CC00AD01000838
:0C42D00001000000100000000024F400B9
:04000005080041DDD1
:00000001FF
